{
  "contractName": "Kirok",
  "abi": [
    {
      "inputs": [],
      "stateMutability": "nonpayable",
      "type": "constructor"
    },
    {
      "inputs": [
        {
          "internalType": "address",
          "name": "owner",
          "type": "address"
        }
      ],
      "name": "OwnableInvalidOwner",
      "type": "error"
    },
    {
      "inputs": [
        {
          "internalType": "address",
          "name": "account",
          "type": "address"
        }
      ],
      "name": "OwnableUnauthorizedAccount",
      "type": "error"
    },
    {
      "anonymous": false,
      "inputs": [
        {
          "indexed": true,
          "internalType": "address",
          "name": "previousOwner",
          "type": "address"
        },
        {
          "indexed": true,
          "internalType": "address",
          "name": "newOwner",
          "type": "address"
        }
      ],
      "name": "OwnershipTransferred",
      "type": "event"
    },
    {
      "inputs": [
        {
          "internalType": "uint256",
          "name": "",
          "type": "uint256"
        }
      ],
      "name": "allNames",
      "outputs": [
        {
          "internalType": "string",
          "name": "",
          "type": "string"
        }
      ],
      "stateMutability": "view",
      "type": "function",
      "constant": true
    },
    {
      "inputs": [
        {
          "internalType": "uint256",
          "name": "",
          "type": "uint256"
        }
      ],
      "name": "allTxtRecords",
      "outputs": [
        {
          "internalType": "string",
          "name": "",
          "type": "string"
        }
      ],
      "stateMutability": "view",
      "type": "function",
      "constant": true
    },
    {
      "inputs": [],
      "name": "owner",
      "outputs": [
        {
          "internalType": "address",
          "name": "",
          "type": "address"
        }
      ],
      "stateMutability": "view",
      "type": "function",
      "constant": true
    },
    {
      "inputs": [],
      "name": "renounceOwnership",
      "outputs": [],
      "stateMutability": "nonpayable",
      "type": "function"
    },
    {
      "inputs": [
        {
          "internalType": "address",
          "name": "newOwner",
          "type": "address"
        }
      ],
      "name": "transferOwnership",
      "outputs": [],
      "stateMutability": "nonpayable",
      "type": "function"
    },
    {
      "inputs": [
        {
          "internalType": "string",
          "name": "_name",
          "type": "string"
        },
        {
          "internalType": "address",
          "name": "_address",
          "type": "address"
        }
      ],
      "name": "register",
      "outputs": [
        {
          "internalType": "bool",
          "name": "",
          "type": "bool"
        }
      ],
      "stateMutability": "nonpayable",
      "type": "function"
    },
    {
      "inputs": [
        {
          "internalType": "string",
          "name": "_name",
          "type": "string"
        }
      ],
      "name": "fromNameToAddress",
      "outputs": [
        {
          "internalType": "address",
          "name": "",
          "type": "address"
        }
      ],
      "stateMutability": "view",
      "type": "function",
      "constant": true
    },
    {
      "inputs": [
        {
          "internalType": "address",
          "name": "_address",
          "type": "address"
        }
      ],
      "name": "fromAddressToName",
      "outputs": [
        {
          "internalType": "string",
          "name": "",
          "type": "string"
        }
      ],
      "stateMutability": "view",
      "type": "function",
      "constant": true
    },
    {
      "inputs": [
        {
          "internalType": "string",
          "name": "_name",
          "type": "string"
        },
        {
          "internalType": "string",
          "name": "_txtRecordURI",
          "type": "string"
        }
      ],
      "name": "registerTxtRecord",
      "outputs": [
        {
          "internalType": "bool",
          "name": "",
          "type": "bool"
        }
      ],
      "stateMutability": "nonpayable",
      "type": "function"
    },
    {
      "inputs": [
        {
          "internalType": "string",
          "name": "_name",
          "type": "string"
        }
      ],
      "name": "checkTxtRecord",
      "outputs": [
        {
          "internalType": "string",
          "name": "",
          "type": "string"
        }
      ],
      "stateMutability": "view",
      "type": "function",
      "constant": true
    }
  ],
  "bytecode": "0x608060405234801562000010575f80fd5b50335f73ffffffffffffffffffffffffffffffffffffffff168173ffffffffffffffffffffffffffffffffffffffff160362000085575f6040517f1e4fbdf70000000000000000000000000000000000000000000000000000000081526004016200007c9190620001a1565b60405180910390fd5b62000096816200009d60201b60201c565b50620001bc565b5f805f9054906101000a900473ffffffffffffffffffffffffffffffffffffffff169050815f806101000a81548173ffffffffffffffffffffffffffffffffffffffff021916908373ffffffffffffffffffffffffffffffffffffffff1602179055508173ffffffffffffffffffffffffffffffffffffffff168173ffffffffffffffffffffffffffffffffffffffff167f8be0079c531659141344cd1fd0a4f28419497f9722a3daafe3b4186f6b6457e060405160405180910390a35050565b5f73ffffffffffffffffffffffffffffffffffffffff82169050919050565b5f62000189826200015e565b9050919050565b6200019b816200017d565b82525050565b5f602082019050620001b65f83018462000190565b92915050565b61189980620001ca5f395ff3fe608060405234801561000f575f80fd5b506004361061009c575f3560e01c80638da5cb5b116100645780638da5cb5b1461016a57806391c2eed1146101885780639f8fc0e4146101b8578063b59bc724146101e8578063f2fde38b146102185761009c565b80631e59c529146100a057806334e346b9146100d0578063715018a6146101005780637972d8841461010a57806387765cf21461013a575b5f80fd5b6100ba60048036038101906100b59190610f1f565b610234565b6040516100c79190610f93565b60405180910390f35b6100ea60048036038101906100e59190610fdf565b610456565b6040516100f79190611084565b60405180910390f35b6101086104fc565b005b610124600480360381019061011f91906110a4565b61050f565b6040516101319190611084565b60405180910390f35b610154600480360381019061014f9190610fdf565b610673565b6040516101619190611084565b60405180910390f35b610172610719565b60405161017f91906110de565b60405180910390f35b6101a2600480360381019061019d91906110f7565b610740565b6040516101af9190611084565b60405180910390f35b6101d260048036038101906101cd91906110f7565b610935565b6040516101df91906110de565b60405180910390f35b61020260048036038101906101fd919061113e565b610a3d565b60405161020f9190610f93565b60405180910390f35b610232600480360381019061022d91906110a4565b610ba5565b005b5f61023d610c29565b5f73ffffffffffffffffffffffffffffffffffffffff1660038460405161026491906111ee565b90815260200160405180910390205f9054906101000a900473ffffffffffffffffffffffffffffffffffffffff1673ffffffffffffffffffffffffffffffffffffffff16146102e8576040517f08c379a00000000000000000000000000000000000000000000000000000000081526004016102df9061124e565b60405180910390fd5b5f60045f8473ffffffffffffffffffffffffffffffffffffffff1673ffffffffffffffffffffffffffffffffffffffff1681526020019081526020015f20805461033190611299565b905014610373576040517f08c379a000000000000000000000000000000000000000000000000000000000815260040161036a90611339565b60405180910390fd5b8160038460405161038491906111ee565b90815260200160405180910390205f6101000a81548173ffffffffffffffffffffffffffffffffffffffff021916908373ffffffffffffffffffffffffffffffffffffffff1602179055508260045f8473ffffffffffffffffffffffffffffffffffffffff1673ffffffffffffffffffffffffffffffffffffffff1681526020019081526020015f20908161041991906114f4565b50600183908060018154018082558091505060019003905f5260205f20015f90919091909150908161044b91906114f4565b506001905092915050565b60028181548110610465575f80fd5b905f5260205f20015f91509050805461047d90611299565b80601f01602080910402602001604051908101604052809291908181526020018280546104a990611299565b80156104f45780601f106104cb576101008083540402835291602001916104f4565b820191905f5260205f20905b8154815290600101906020018083116104d757829003601f168201915b505050505081565b610504610c29565b61050d5f610cb0565b565b6060610519610c29565b5f60018054905011610560576040517f08c379a000000000000000000000000000000000000000000000000000000000815260040161055790611633565b60405180910390fd5b5f60045f8473ffffffffffffffffffffffffffffffffffffffff1673ffffffffffffffffffffffffffffffffffffffff1681526020019081526020015f2080546105a990611299565b80601f01602080910402602001604051908101604052809291908181526020018280546105d590611299565b80156106205780601f106105f757610100808354040283529160200191610620565b820191905f5260205f20905b81548152906001019060200180831161060357829003601f168201915b505050505090505f81510361066a576040517f08c379a0000000000000000000000000000000000000000000000000000000008152600401610661906116c1565b60405180910390fd5b80915050919050565b60018181548110610682575f80fd5b905f5260205f20015f91509050805461069a90611299565b80601f01602080910402602001604051908101604052809291908181526020018280546106c690611299565b80156107115780601f106106e857610100808354040283529160200191610711565b820191905f5260205f20905b8154815290600101906020018083116106f457829003601f168201915b505050505081565b5f805f9054906101000a900473ffffffffffffffffffffffffffffffffffffffff16905090565b606061074a610c29565b5f60018054905011610791576040517f08c379a000000000000000000000000000000000000000000000000000000000815260040161078890611633565b60405180910390fd5b5f6003836040516107a291906111ee565b90815260200160405180910390205f9054906101000a900473ffffffffffffffffffffffffffffffffffffffff1690505f73ffffffffffffffffffffffffffffffffffffffff168173ffffffffffffffffffffffffffffffffffffffff1603610840576040517f08c379a000000000000000000000000000000000000000000000000000000000815260040161083790611729565b60405180910390fd5b5f60058460405161085191906111ee565b9081526020016040518091039020805461086a90611299565b80601f016020809104026020016040519081016040528092919081815260200182805461089690611299565b80156108e15780601f106108b8576101008083540402835291602001916108e1565b820191905f5260205f20905b8154815290600101906020018083116108c457829003601f168201915b505050505090505f81510361092b576040517f08c379a0000000000000000000000000000000000000000000000000000000008152600401610922906117b7565b60405180910390fd5b8092505050919050565b5f61093e610c29565b5f60018054905011610985576040517f08c379a000000000000000000000000000000000000000000000000000000000815260040161097c90611633565b60405180910390fd5b5f60038360405161099691906111ee565b90815260200160405180910390205f9054906101000a900473ffffffffffffffffffffffffffffffffffffffff1690505f73ffffffffffffffffffffffffffffffffffffffff168173ffffffffffffffffffffffffffffffffffffffff1603610a34576040517f08c379a0000000000000000000000000000000000000000000000000000000008152600401610a2b90611845565b60405180910390fd5b80915050919050565b5f610a46610c29565b5f60018054905011610a8d576040517f08c379a0000000000000000000000000000000000000000000000000000000008152600401610a8490611633565b60405180910390fd5b5f600384604051610a9e91906111ee565b90815260200160405180910390205f9054906101000a900473ffffffffffffffffffffffffffffffffffffffff1690505f73ffffffffffffffffffffffffffffffffffffffff168173ffffffffffffffffffffffffffffffffffffffff1603610b3c576040517f08c379a0000000000000000000000000000000000000000000000000000000008152600401610b3390611729565b60405180910390fd5b82600585604051610b4d91906111ee565b90815260200160405180910390209081610b6791906114f4565b50600283908060018154018082558091505060019003905f5260205f20015f909190919091509081610b9991906114f4565b50600191505092915050565b610bad610c29565b5f73ffffffffffffffffffffffffffffffffffffffff168173ffffffffffffffffffffffffffffffffffffffff1603610c1d575f6040517f1e4fbdf7000000000000000000000000000000000000000000000000000000008152600401610c1491906110de565b60405180910390fd5b610c2681610cb0565b50565b610c31610d71565b73ffffffffffffffffffffffffffffffffffffffff16610c4f610719565b73ffffffffffffffffffffffffffffffffffffffff1614610cae57610c72610d71565b6040517f118cdaa7000000000000000000000000000000000000000000000000000000008152600401610ca591906110de565b60405180910390fd5b565b5f805f9054906101000a900473ffffffffffffffffffffffffffffffffffffffff169050815f806101000a81548173ffffffffffffffffffffffffffffffffffffffff021916908373ffffffffffffffffffffffffffffffffffffffff1602179055508173ffffffffffffffffffffffffffffffffffffffff168173ffffffffffffffffffffffffffffffffffffffff167f8be0079c531659141344cd1fd0a4f28419497f9722a3daafe3b4186f6b6457e060405160405180910390a35050565b5f33905090565b5f604051905090565b5f80fd5b5f80fd5b5f80fd5b5f80fd5b5f601f19601f8301169050919050565b7f4e487b71000000000000000000000000000000000000000000000000000000005f52604160045260245ffd5b610dd782610d91565b810181811067ffffffffffffffff82111715610df657610df5610da1565b5b80604052505050565b5f610e08610d78565b9050610e148282610dce565b919050565b5f67ffffffffffffffff821115610e3357610e32610da1565b5b610e3c82610d91565b9050602081019050919050565b828183375f83830152505050565b5f610e69610e6484610e19565b610dff565b905082815260208101848484011115610e8557610e84610d8d565b5b610e90848285610e49565b509392505050565b5f82601f830112610eac57610eab610d89565b5b8135610ebc848260208601610e57565b91505092915050565b5f73ffffffffffffffffffffffffffffffffffffffff82169050919050565b5f610eee82610ec5565b9050919050565b610efe81610ee4565b8114610f08575f80fd5b50565b5f81359050610f1981610ef5565b92915050565b5f8060408385031215610f3557610f34610d81565b5b5f83013567ffffffffffffffff811115610f5257610f51610d85565b5b610f5e85828601610e98565b9250506020610f6f85828601610f0b565b9150509250929050565b5f8115159050919050565b610f8d81610f79565b82525050565b5f602082019050610fa65f830184610f84565b92915050565b5f819050919050565b610fbe81610fac565b8114610fc8575f80fd5b50565b5f81359050610fd981610fb5565b92915050565b5f60208284031215610ff457610ff3610d81565b5b5f61100184828501610fcb565b91505092915050565b5f81519050919050565b5f82825260208201905092915050565b5f5b83811015611041578082015181840152602081019050611026565b5f8484015250505050565b5f6110568261100a565b6110608185611014565b9350611070818560208601611024565b61107981610d91565b840191505092915050565b5f6020820190508181035f83015261109c818461104c565b905092915050565b5f602082840312156110b9576110b8610d81565b5b5f6110c684828501610f0b565b91505092915050565b6110d881610ee4565b82525050565b5f6020820190506110f15f8301846110cf565b92915050565b5f6020828403121561110c5761110b610d81565b5b5f82013567ffffffffffffffff81111561112957611128610d85565b5b61113584828501610e98565b91505092915050565b5f806040838503121561115457611153610d81565b5b5f83013567ffffffffffffffff81111561117157611170610d85565b5b61117d85828601610e98565b925050602083013567ffffffffffffffff81111561119e5761119d610d85565b5b6111aa85828601610e98565b9150509250929050565b5f81905092915050565b5f6111c88261100a565b6111d281856111b4565b93506111e2818560208601611024565b80840191505092915050565b5f6111f982846111be565b915081905092915050565b7f54686973206e616d6520697320616c726561647920726567697374657265642e5f82015250565b5f611238602083611014565b915061124382611204565b602082019050919050565b5f6020820190508181035f8301526112658161122c565b9050919050565b7f4e487b71000000000000000000000000000000000000000000000000000000005f52602260045260245ffd5b5f60028204905060018216806112b057607f821691505b6020821081036112c3576112c261126c565b5b50919050565b7f54686973206164647265737320697320616c72656164792072656769737465725f8201527f65642e0000000000000000000000000000000000000000000000000000000000602082015250565b5f611323602383611014565b915061132e826112c9565b604082019050919050565b5f6020820190508181035f83015261135081611317565b9050919050565b5f819050815f5260205f209050919050565b5f6020601f8301049050919050565b5f82821b905092915050565b5f600883026113b37fffffffffffffffffffffffffffffffffffffffffffffffffffffffffffffffff82611378565b6113bd8683611378565b95508019841693508086168417925050509392505050565b5f819050919050565b5f6113f86113f36113ee84610fac565b6113d5565b610fac565b9050919050565b5f819050919050565b611411836113de565b61142561141d826113ff565b848454611384565b825550505050565b5f90565b61143961142d565b611444818484611408565b505050565b5b818110156114675761145c5f82611431565b60018101905061144a565b5050565b601f8211156114ac5761147d81611357565b61148684611369565b81016020851015611495578190505b6114a96114a185611369565b830182611449565b50505b505050565b5f82821c905092915050565b5f6114cc5f19846008026114b1565b1980831691505092915050565b5f6114e483836114bd565b9150826002028217905092915050565b6114fd8261100a565b67ffffffffffffffff81111561151657611515610da1565b5b6115208254611299565b61152b82828561146b565b5f60209050601f83116001811461155c575f841561154a578287015190505b61155485826114d9565b8655506115bb565b601f19841661156a86611357565b5f5b828110156115915784890151825560018201915060208501945060208101905061156c565b868310156115ae57848901516115aa601f8916826114bd565b8355505b6001600288020188555050505b505050505050565b7f546865726520617265206e6f20726567697374657265642061646472657373655f8201527f732e000000000000000000000000000000000000000000000000000000000000602082015250565b5f61161d602283611014565b9150611628826115c3565b604082019050919050565b5f6020820190508181035f83015261164a81611611565b9050919050565b7f54686973206164647265737320697320616e20756e72656769737465726564205f8201527f616464726573732e000000000000000000000000000000000000000000000000602082015250565b5f6116ab602883611014565b91506116b682611651565b604082019050919050565b5f6020820190508181035f8301526116d88161169f565b9050919050565b7f5468697320697320616e20756e7265676973746572656420616464726573732e5f82015250565b5f611713602083611014565b915061171e826116df565b602082019050919050565b5f6020820190508181035f83015261174081611707565b9050919050565b7f5468697320697320616e20756e7265676973746572656420746578745265636f5f8201527f72642e0000000000000000000000000000000000000000000000000000000000602082015250565b5f6117a1602383611014565b91506117ac82611747565b604082019050919050565b5f6020820190508181035f8301526117ce81611795565b9050919050565b7f54686973206e616d6520697320616e20756e72656769737465726564206164645f8201527f726573732e000000000000000000000000000000000000000000000000000000602082015250565b5f61182f602583611014565b915061183a826117d5565b604082019050919050565b5f6020820190508181035f83015261185c81611823565b905091905056fea2646970667358221220e38a8b05f2634dc4e9b882fe2edad3361339d3e1a378b9ba25653d1c12d9465764736f6c63430008170033",
  "immutableReferences": {},
  "source": "pragma solidity ^0.8.0;\n\nimport \"@openzeppelin/contracts/access/Ownable.sol\";\n\ncontract Kirok is Ownable {\n  string[] public allNames;\n  string[] public allTxtRecords;\n\n  mapping(string => address) addresses;\n  mapping(address => string) names;\n\n  mapping(string => string) txtRecordURIs;\n\n  constructor() Ownable(msg.sender) {} \n\n  // \n  function register(string memory _name, address _address) public onlyOwner returns (bool) {\n    require(addresses[_name] == address(0), \"This name is already registered.\");\n    require(bytes(names[_address]).length == 0, \"This address is already registered.\");\n\n    addresses[_name] = _address;\n    names[_address] = _name;\n    allNames.push(_name);\n    return true;\n  }\n\n  //    \n  function fromNameToAddress(string memory _name) public view onlyOwner returns (address) {\n    require(allNames.length > 0, \"There are no registered addresses.\");\n\n    address _address = addresses[_name];\n    require(_address != address(0), \"This name is an unregistered address.\");\n\n    return _address;\n  }\n\n  //    \n  function fromAddressToName(address _address) public view onlyOwner returns (string memory) {\n    require(allNames.length > 0, \"There are no registered addresses.\");\n    string memory _name = names[_address];\n    require(bytes(_name).length != 0, \"This address is an unregistered address.\");\n\n    return _name;\n  }\n\n  // textRecord \n  function registerTxtRecord(string memory _name, string memory _txtRecordURI) public onlyOwner returns (bool) {\n    require(allNames.length > 0, \"There are no registered addresses.\");\n\n    address _address = addresses[_name];\n    require(_address != address(0), \"This is an unregistered address.\");\n\n    //        \n    // require(msg.sender == _address, \"This is not your address.\");\n\n    txtRecordURIs[_name] = _txtRecordURI;\n    allTxtRecords.push(_txtRecordURI);\n\n    return true;\n  }\n\n  //  textRecord \n  function checkTxtRecord(string memory _name) public view onlyOwner returns (string memory) {\n    require(allNames.length > 0, \"There are no registered addresses.\");\n\n    address _address = addresses[_name];\n    require(_address != address(0), \"This is an unregistered address.\");\n\n    string memory _txtRecordUri = txtRecordURIs[_name];\n    require(bytes(_txtRecordUri).length != 0, \"This is an unregistered textRecord.\");\n\n    return _txtRecordUri;\n  }\n}",
  "sourcePath": "/Users/instant/Desktop/kirok/Contract/contracts/Kirok.sol",
  "compiler": {
    "name": "solc",
    "version": "0.8.23+commit.f704f362.Emscripten.clang"
  },
  "schemaVersion": "3.4.10",
  "updatedAt": "2023-11-19T11:18:05.038Z",
  "networkType": "ethereum",
  "devdoc": {
    "errors": {
      "OwnableInvalidOwner(address)": [
        {
          "details": "The owner is not a valid owner account. (eg. `address(0)`)"
        }
      ],
      "OwnableUnauthorizedAccount(address)": [
        {
          "details": "The caller account is not authorized to perform an operation."
        }
      ]
    },
    "kind": "dev",
    "methods": {
      "owner()": {
        "details": "Returns the address of the current owner."
      },
      "renounceOwnership()": {
        "details": "Leaves the contract without owner. It will not be possible to call `onlyOwner` functions. Can only be called by the current owner. NOTE: Renouncing ownership will leave the contract without an owner, thereby disabling any functionality that is only available to the owner."
      },
      "transferOwnership(address)": {
        "details": "Transfers ownership of the contract to a new account (`newOwner`). Can only be called by the current owner."
      }
    },
    "version": 1
  },
  "userdoc": {
    "kind": "user",
    "methods": {},
    "version": 1
  }
}